:020000040800F2
:1000000000500020B55E0008155F0008155F00086D
:10001000155F0008155F0008155F0008000000006C
:10002000000000000000000000000000155F000854
:10003000155F000800000000155F0008EF50000881
:10004000155F0008155F0008155F0008155F0008C0
:10005000155F0008155F0008E1510008E75100082E
:10006000ED510008F3510008F9510008155F000830
:10007000155F0008155F0008155F0008155F000890
:10008000155F0008155F0008155F00083171000852
:1000900025710008155F0008155F0008FF51000872
:1000A000155F0008DD420008155F0008F1420008F6
:1000B000F5420008094300081D430008155F0008C9
:1000C000155F0008155F0008155F0008155F000840
:1000D000155F0008F55D00080D5E0008295E000848
:1000E00015520008155F0008357100080000000077
:1000F0000000000000000000000000000000000000
:0C01000000000000000000005FF808F1A3
:10010C00034613F8012B002AFBD1181A013870474B
:10011C0010B5054C237833B9044B13B10448AFF335
:10012C0000800123237010BDD802002000000000C5
:10013C006892000808B5034B1BB103490348AFF3A1
:10014C00008008BD00000000DC020020689200085E
:10015C0070B5044601F0A4FA064601F0A7FA05466C
:10016C0001F0AAFA320E2270320C6270320AA270BE
:10017C002A0E22712A0C62712A0AA271020E2272B4
:10018C00020C6272020AE072E670E571A2722046FD
:10019C0070BD00000148FFF7DBBF00BFF402002078
:1001AC0070B5154C054607212046164601F0A6F8F9
:1001BC002378C3B194F85D12D4F8580205F0FCFE14
:1001CC003146D4F8580205F0F3FE23785BB194F86D
:1001DC005D12D4F8580205F0EFFE0A222946D4F835
:1001EC00580205F052FFBDE8704041F288330122FD
:1001FC000021014801F016B9940300202DE9F041CB
:10020C001D4C064623780F46232B32D0082000F0D5
:10021C00E7FFE0B9194C23785BBB0521204601F0C0
:10022C006DF8237853B194F85D12D4F8580205F0A8
:10023C00C3FE1349D4F8580205F0B6FEBDE8F041F0
:10024C0041F28833012200210C4801F0EBB8082060
:10025C0000F08EFF05463A46314600F037FD094B5B
:10026C002278094843F8225000F076FD23780133B8
:10027C002370BDE8F08100BF000300209403002030
:10028C008092000804030020AD0100080022014BFD
:10029C001A7070470003002070B50024064D074EFD
:1002AC002A78E3B29A4200D870BD56F8230000F0C9
:1002BC0040FD0134F4E700BF0003002004030020DC
:1002CC0070B500240C4D0D4E2A78E3B29A4206D834
:1002DC0000240A4E2A78E3B29A4206D870BD56F82A
:1002EC00230000F015FD0134EEE756F8230000F072
:1002FC00FFFC0134EEE700BF0003002004030020E4
:10030C00FFF7DEBF10B507F099F9104C104B1860D1
:10031C002378CBB90521204600F0F0FF237853B1A8
:10032C0094F85D12D4F8580205F046FE0949D4F849
:10033C00580205F039FEBDE8104041F28833012225
:10034C000021024801F06EB810BD00BF94030020DC
:10035C00900300209E92000810B51C4C1C492046AE
:10036C0000F0C2FF204602211A4A00F0C0FF2046CE
:10037C000921194A00F0BBFF20460C21174A00F056
:10038C00B6FF20460B21164A00F0B1FF20460D2186
:10039C00144A00F0ACFF20460E21134A00F0A7FFD0
:1003AC0020461021114A00F0A2FF20461321104ACA
:1003BC0000F09DFF204614210E4A00F098FF2046C5
:1003CC00BDE8104017210C4A00F091BF94030020A7
:1003DC001103000809100008A10A000829060008EA
:1003EC0061040008D9090008B1090008A109000836
:1003FC00110B0008610B00080D030008014B186875
:10040C00704700BF9003002008B507F017F9014BA7
:10041C00186008BD900300202F2307B52C220093F1
:10042C0003493B23034800F053FF03B05DF804FB82
:10043C00F43400209403002038B504460D7800F005
:10044C00E7FE854205D029462046BDE8384000F03D
:10045C0017BF38BD2DE9F047314CFFF7D5FF2046CB
:10046C0001F052F88246FFF74BFE40F2FE72DFF8C5
:10047C00B490C3B2B9F8008003EB0801914239DCA7
:10048C005F1C9DB2284B08F13B081B881FFA88F8AB
:10049C0008EB07029A420ADC00260AEB060108EB7D
:1004AC0006000136FFF7C8FFB3B29F42F5D8B9F882
:1004BC0000301D442378ADB2A9F800506BBB052168
:1004CC00174800F01BFF23785BB194F85D12D4F849
:1004DC00580205F071FD0A222946D4F8580205F09D
:1004EC00C7FDBDE8F04741F28833012200210C48DA
:1004FC0000F098BF237883B90521204600F0FEFE5A
:10050C002378002BEDD094F85D12D4F8580205F046
:10051C0053FD0A224FF0FF31DFE7BDE8F08700BF43
:10052C0094030020C2060020C40E002008B5FFF77B
:10053C00ADFE00F0B1FB00F05BFD0023034A13801D
:10054C00034A1370BDE8084000F044BEC206002008
:10055C00C00600202DE9F341002401AE804635464B
:10056C00114F0194B8F80010384689B24B1C9BB25D
:10057C00A8F8003000F0FFFB307016F8013B2E2B72
:10058C0003D00134042CEDD1032404F108030DEB4A
:10059C0003040023284604F8043C07F0CFFBC0B248
:1005AC0002B0BDE8F08100BFC40E0020F8B50646CD
:1005BC000C4615460C4F318838464B1C338000F0E6
:1005CC00DAFB2B885A1C2A80E0542B88B3F57A7FEF
:1005DC0007D23A28EFD11C440023012004F8013C37
:1005EC00F8BD0020FCE700BFC40E002070B5044627
:1005FC00094800F0BEFB0546074E218830464B1CCF
:10060C00238000F0B8FB2388AB4203D83A28F4D1FE
:10061C00012070BD0020FCE7C40E00202DE9F04144
:10062C001C4C1D4EFFF7F0FE0A21204600F066FE22
:10063C00338843B9BDE8F04141F2883301220021EF
:10064C00144800F0EFBE3B21144800F094FB2378D3
:10065C00054653B194F85D12D4F8580205F0ACFC81
:10066C002946D4F8580205F0A7FC01250B4F338816
:10067C00AB42DFD905F13B0189B2384600F07BFB78
:10068C00237801461BB1D4F8580205F095FC0135CE
:10069C00ADB2ECE794030020C2060020C40E00208B
:1006AC00014B1878704700BFC006002038B506F023
:1006BC00C5FF05F0AFFD40F6FF7005F0AFFD044639
:1006CC0040F6FF7005F0AAFD2246034609490A4888
:1006DC0007F0D2FD094B1B883A2B0AD93024064D62
:1006EC00294620460134FFF7A7FE3B2C05F10105F6
:1006FC00F6D138BDA292000830000020C40E0020B4
:10070C00F8B50949094807F0C0FE0024084D094E08
:10071C00094F3019394615F8012B023407F0ACFD9E
:10072C00182CF6D1F8BD00BFAF92000830000020A5
:10073C00F402002033000020B392000838B518B141
:10074C00BDE83840FFF7B2BF184C3021204600F00E
:10075C0012FB532813D13121204600F00CFB4E28FC
:10076C000DD123883A2B09D93024114D204600F0A5
:10077C004FFD01343B2C05F8010BF7D138BD30216E
:10078C000A4800F0F8FA492806D0BDE838400022A3
:10079C003B21064800F0F7BA3121044800F0EBFA8F
:1007AC004428F2D1BDE83840FFF7AABFC40E0020A0
:1007BC003000002038B50A4C23220021204600F0DE
:1007CC00E2FA23882F2B0AD90124064D294620460C
:1007DC000134FFF731FE302C05F10105F6D138BD9F
:1007EC00C40E00200000002038B50A4C0021204621
:1007FC0000F0C1FA23280CD123882F2B09D901240E
:10080C00054D204600F004FD0134302C05F8010B99
:10081C00F7D138BDC40E00200000002038B5037895
:10082C0004460D4663B190F85D12D0F8580205F0FD
:10083C00C3FB2946D4F85802BDE8384005F0B4BBD8
:10084C0038BD2DE9F0411D460378044616469DF847
:10085C001870DDF81C806BB900F050FD3146204655
:10086C00FFF7DCFF43463A4629462046BDE8F041F7
:10087C0000F0D8BDBDE8F0817FB5364B1B88002B4E
:10088C0065D03B23ADF80C30002303A8ADF80E3037
:10089C00FFF760FE00285AD02F4D013807282FD8BB
:1008AC00DFE800F00432292E2E2E2E4203A8FFF78B
:1008BC0051FEBDF80E102944FFF7A0FC26490DF19E
:1008CC000E0203A8FFF772FE044603A8FFF742FED0
:1008DC0000283AD0002CE0D100231F4A41F2883185
:1008EC0082F8E73301221D48CDE9002105211C4A7D
:1008FC00FFF7A7FF2BE003A8FFF72CFE00F03AFB55
:10090C0003A8FFF773FEDFE703A8FFF723FE0446F7
:10091C0003A8FFF71FFE00220146BDF80E302B4442
:10092C00204600F067F9C9E703A8FFF713FE044659
:10093C0003A8FFF70FFE064603A8FFF70BFEBDF852
:10094C000E30024631462B44EAE7002CC4D004B0EA
:10095C0070BD00BFC2060020C40600209403002016
:10096C00B8920008012307B5074A1121137041F210
:10097C0088320648CDE900320023054AFFF761FFB3
:10098C0003B05DF804FB00BFC006002094030020F8
:10099C00D292000808B5FFF76FFFBDE80840FFF7DB
:1009AC00E1BF000007B5012341F288320F21CDE9E8
:1009BC00003204480023044AFFF743FF03B05DF8FC
:1009CC0004FB00BF94030020D292000807B5FFF788
:1009DC00ADFD012341F288320521CDE900320448F6
:1009EC000023044AFFF72DFF03B05DF804FB00BFA2
:1009FC0094030020D2920008F7B5134800F0B9F91F
:100A0C00002305463B24114E0F4F338021463846B8
:100A1C000134A4B200F0AFF908B9012011E0338819
:100A2C00A54203F101033380F0D2012341F2883255
:100A3C000748CDE9003205210023064AFFF701FFE4
:100A4C00002003B0F0BD00BFC40E0020C206002081
:100A5C0094030020D592000808B5FFF7CDFF28B10C
:100A6C00FFF70AFFBDE80840FFF77CBF08BD38B5AB
:100A7C00037804460D4663B190F85D12D0F8580225
:100A8C0005F09AFA2946D4F85802BDE8384005F02A
:100A9C008FBA38BD10B5164C0020FFF74FFEFFF78C
:100AAC00B3FC0A21204600F029FC20461149FFF72F
:100ABC00B5FE20461049FFF7DAFF20460F49FFF735
:100ACC00D6FF237853B194F85D12D4F8580205F090
:100ADC0073FA0B49D4F8580205F06AFABDE81040D5
:100AEC0041F2883301220021014800F09BBC00BF79
:100AFC0094030020EB92000800000020300000203E
:100B0C000293000870B5114800F0FEFC104B00F188
:100B1C00300250F8041B904243F8041BF9D10B4CE3
:100B2C00FFF748FE257885B92046052100F0E6FB45
:100B3C0020460749FFF79BFF29462046BDE8704039
:100B4C0041F28833012200F06DBC70BD940300208B
:100B5C000000002070B50B4CFFF7A8FD257885B977
:100B6C0020460A2100F0CAFB20460749FFF77FFF09
:100B7C0029462046BDE8704041F28833012200F03E
:100B8C0051BC70BD9403002030000020014800F0DF
:100B9C00E9B800BFC40E002070B5154C05460621FF
:100BAC002046164600F0AAFB2378C3B194F85D12D8
:100BBC00D4F8580205F000FA3146D4F8580205F082
:100BCC00F7F923785BB194F85D12D4F8580205F06C
:100BDC00F3F90A222946D4F8580205F056FABDE872
:100BEC00704041F2883301220021014800F01ABC08
:100BFC00940300202DE9F743224C994623780646AE
:100C0C000F469046002B39D0242000F0E9FAE8B9C1
:100C1C001D4C237893BB0521204600F06FFB2378F5
:100C2C0053B194F85D12D4F8580205F0C5F9174980
:100C3C00D4F8580205F0B8F941F2883301220021AA
:100C4C00114803B0BDE8F04300F0ECBB242000F0E9
:100C5C008FFA054600F0A4F822780D4B314643F884
:100C6C002250284643463A46CDF8009000F09CF8B6
:100C7C00084800F05FF923780133237003B0BDE816
:100C8C00F08300BFC60E0020940300200A930008D6
:100C9C00C80E0020A50B00080022014B1A707047EB
:100CAC00C60E002070B50024064D074E2A78E3B21C
:100CBC009A4200D870BD56F8230000F0F1F80134C8
:100CCC00F4E700BFC60E0020C80E002010B5044685
:100CDC00084621712260022106F0E2FB207906F021
:100CEC0077FC003818BF01206071204610BD000051
:100CFC00064A10B41468034634B1407920B91A6816
:100D0C001979234610BC184710BC7047C80E002038
:100D1C00044B1B682BB142791AB10268017901208E
:100D2C0018477047C80E002009B9FFF7E1BFFFF75D
:100D3C00EFBF10B50446007906F04AFC6379C1B2E6
:100D4C008B4208D0003918BF012120466171BDE8E3
:100D5C001040FFF7E9BF10BD014B1860704700BF92
:100D6C00C80E00200022028070474FF4806303807D
:100D7C0070470088704703888B4202D9084600F000
:100D8C0047BA0020704708B5034608461B88114631
:100D9C00834203D900F074FA012008BD0020FCE75F
:100DAC00002282707047000070B500250E46044684
:100DBC00427004990E4A03EB83034160D1180581FC
:100DCC000670D0580B79E06023740221304606F08F
:100DDC0067FB0221607806F063FB4FF4FA73A361A2
:100DEC0001236574E5726582A582E561A37070BD0F
:100DFC002A930008F8B50446007806F0E9FB05468E
:100E0C00607806F0E5FB064606F018FC0146B5FADC
:100E1C0085F3B6FA86F0226A40098A1A5B09642ABD
:100E2C0043EA400328D9E27A012A25D92162013A02
:100E3C00E27294F911209A421DD0E07A124F0628E2
:100E4C008CBF3326012643EA8202BA56257C7243B4
:100E5C00668AAA403244E618367B12B262824EB1E0
:100E6C002A41A282421C0C2AA8BF0C22A669E2725B
:100E7C00C4E906166374F8BDE2698A1AB2F5FA7F02
:100E8C00D7D900222162D3E743930008428A037C1E
:100E9C0002F0030241FA03F3134343828182704749
:100EAC0083782DE9F0410546002B3FD0FFF7A2FFD8
:100EBC00B5F91460B5F90840B44237D0341B1C4B5B
:100ECC00A7B224B2002CD3F800800CDBB8F1000FD1
:100EDC0019D0002CB8BF6442A4B2312C29786A68AE
:100EEC000FD901200EE0B8F1000F14D084EAE4739E
:100EFC00A3EBE4739BB2312B6A68697809D90320A0
:100F0C0008E00020C04706EB4707B7F5FA5F07DC9F
:100F1C000BE00220C047A6EB440414F5FA5F04DA98
:100F2C0000212846FFF7B2FF0E462E81BDE8F08166
:100F3C00CC0E0020014B1860704700BFCC0E002077
:100F4C004170007806F03EBA10B5002304460846FE
:100F5C0021706370012106F0A3FA20466178FFF737
:100F6C00EFFF204610BD11B10021FFF7E9BF41781A
:100F7C00FBE7000070B51A4C06462378232B2DD0C6
:100F8C00022000F02DF9E0B9164C237833BB052173
:100F9C00204600F0B3F9237853B194F85D12D4F8DD
:100FAC00580205F009F81049D4F8580204F0FCFF77
:100FBC00BDE8704041F2883301220021094800F05D
:100FCC0031BA022000F0D4F805463146FFF7BCFFD9
:100FDC002378064A42F823500133237070BD00BFBA
:100FEC00D00E00209403002053930008D40E002050
:100FFC000022014B1A707047D00E002038B5084DF6
:10100C00284600F0FDF90446284600F0F9F901469F
:10101C00204606F0D7F9BDE83840FFF7F5B900BF18
:10102C0094030020F8B505460024074E074F32788C
:10103C00E3B29A4200D8F8BD294657F82300FFF7CF
:10104C0092FF0134F3E700BFD00E0020D40E002035
:10105C0010B506F0F3FA034C206006F0EFFA60606E
:10106C0010BD00BF600F002070B50C46164605463B
:10107C0006F0E4FA2368C01AB04203D3A84706F07E
:10108C00DDFA206070BD0000014B1870FFF7CABF7D
:10109C00680F002038B5104D2B7853B106F0CEFAFE
:1010AC000446FFF7ABF90D4B241A9C4212D80020D2
:1010BC0009E006F0C3FA0446FFF7A0F9084B241A1E
:1010CC009C4204D90120BDE83840FFF7DDBF2B78E6
:1010DC00002BE3D138BD00BF680F00209FBB0D0073
:1010EC00A0BB0D0008B5FFF78FF9FFF77DFBBDE83E
:1010FC000840FFF7B1BC000008B54FF4E1310948D6
:10110C0005F078F80848FFF730FEFFF725F90121C4
:10111C00064800F0E7F8FFF7E5FFBDE80840FFF7E9
:10112C0097BF00BFF4340020C40E002094030020AD
:10113C0008B50A4800F0F7F9FFF7ACFFFFF7B0FA73
:10114C0058B10A2206490748FFF78EFFBDE8084050
:10115C00012205490548FFF787BF08BD940300200D
:10116C00600F0020A5020008640F0020B10C0008DD
:10117C00144910B50A8883189BB2B3F5006F0B8025
:10118C001CD3114C2378BBB90521204600F0B6F8CE
:10119C00237853B194F85D12D4F8580204F00CFF84
:1011AC000A49D4F8580204F0FFFE41F288330122B8
:1011BC000021054800F036F9002010BD044800EB72
:1011CC008200FAE76A0F0020940300207193000854
:1011DC006C0F00200022014B1A8070476A0F002010
:1011EC00044B1B881844B0F5006FCCBF00200120C5
:1011FC00704700BF6A0F002008B54FF480620249A7
:10120C00024807F04AF908BD00FC0108702F0020C5
:10121C0010B50446FFF7F0FF014B185D10BD00BF81
:10122C00702F0020002370B586B0CDE90133012367
:10123C000F4C0593CDE9033400F06AFBB0B940F2D2
:10124C0015120C4B01A9DA6002A800F00BFC58B97E
:10125C00094D0A4E2146F5E80223032000F09EFBBF
:10126C0010B90834B442F5D100F064FB06B070BD7F
:10127C0000FC010800200240702F00200000020832
:10128C00014B1954FFF7CEBF702F002038B580F8F2
:10129C005C329DF81030002580F85E324FF48043AC
:1012AC0043803F23037101230446C0F8581280F891
:1012BC005D22C0E99355C0F86052057280F84A323D
:1012CC00C822294600F5197007F053F8E57138BDAE
:1012DC0037B504469DF818500095FFF7D7FF204608
:1012EC0003B030BD01727047C0F8601270473129ED
:1012FC009CBF00EB8100C0F86422704703783BB9B7
:10130C0001230A220370C371D0F8580204F0BDBE49
:10131C00704730B5054609781C781970A4EB020C9F
:10132C0095F85E52DCF1000040EB0C008D4203D1CD
:10133C00944204BF00221A7030BDF8B50022034657
:10134C0004460D460E4603F8052F314694F85E22EE
:10135C002046FFF7DEFF324612F8011B11B928B9FF
:10136C00701BF8BD94F85D728F42F8D01646ECE70E
:10137C002DE9F041074690461E460C4601B91C6803
:10138C004246214638462546FFF7D7FF18B92B7839
:10139C000134002BF4D12B7873B1424629463846E0
:1013AC00FFF7CBFF2A5C2B1812B1002201332A5411
:1013BC0033602846BDE8F0811D46FAE710B590F879
:1013CC0049320446B3B1012B04BF022380F84932E1
:1013DC0090F84A3214BF002100F109013BB190F89A
:1013EC005D2200F51473FFF7C3FFC4F84C02D4F868
:1013FC004C320BB9002010BD012084F84A02FAE7E8
:10140C0010B50446FFF7DAFF48B140F20113D4F8E7
:10141C004C02A4F84A3206F091FC00B210BD84F8DC
:10142C004B02FBE72DE9F74F9846037804460D462F
:10143C00924633B900200023E371237003B0BDE85A
:10144C00F08F90F85C12D0F8580204F0B5FD237AB6
:10145C001BB1D4F8580204F0B3FD002DEAD006F00D
:10146C00EDF8064605460020814604F1060BAD1B3F
:10147C00A845E0D90028DED106F0E0F80546D4F8FE
:10148C00580203681B69984718B9AD1BA845F3D8D7
:10149C00D0E7D4F8580203685B6998475B46C7B23B
:1014AC0094F85E22204684F849920DF107018DF8DC
:1014BC000770FFF72EFF94F85C32BB42A37804EB65
:1014CC00030219D1C0B950721BB10123A07184F869
:1014DC0049320123C4E9939984F8029084F84A3282
:1014EC0094F84932012BD0D12046FFF789FF5045A3
:1014FC00CBD194F84B02BAE7577222790133DBB2A5
:10150C009A42A370ECD8E4E710B50446FFF756FFF7
:10151C0030B140F20113D4F84C02A4F84A3210BD99
:10152C0084F84B02FBE72DE9F3470446002700F152
:10153C004909E379002B67D1D4F8580203681B6979
:10154C009847002860D0D4F8580204F14806036884
:10155C0004F106081B699847B0F5007FA8BF4FF44B
:10156C0000700546D4F858022A4603684946DB69E0
:10157C00984735440CE082F809A022790133DBB29C
:10158C009A42A37029D822E0D4F86032002B39D1CA
:10159C00AE42CED016F801AF434694F85E222046F8
:1015AC0084F849720DF107018DF807A0FFF7B1FE21
:1015BC0094F85C325345A37804EB0302DBD100288A
:1015CC00D9D150721BB10123A07184F84932012387
:1015DC00C4E99377A77084F84A3294F84932012B06
:1015EC00D6D12046FFF70CFFC0B231286070CBD8A3
:1015FC0094F84B32002BC7D004EB8000D0F8643247
:10160C00002BC1D09847C3E702B0BDE8F087704704
:10161C0038B50E4B05461A784FF47A73B3FBF2F3D8
:10162C000B4A1068B0FBF3F000F0AEF8044658B962
:10163C000F2D09D8024629464FF0FF3000F054F820
:10164C002046044B1D6038BD0120FCE74C000020F7
:10165C007000002050000020074A08B513680320D2
:10166C0043F01003136000F02DF80020FFF7D0FFBB
:10167C00FFF7CDFF002008BD00200240034A044BB9
:10168C0011681B780B441360704700BF7033002047
:10169C004C000020014B1868704700BF70330020CD
:1016AC00014BD3F8E807704700F0FF1F014BD3F84C
:1016BC00EC07704700F0FF1F014BD3F8F0077047A1
:1016CC0000F0FF1F07490302CA6803F4E06322F429
:1016DC00E0621204120C134343F0BF6343F4003373
:1016EC00CB60704700ED00E0154B30B5DC68C4F3FF
:1016FC000224C4F10703251D042B28BF0423062D47
:10170C004FF0FF3594BF0024033C05FA03F321EAA4
:10171C000303A54022EA0502A340002843EA020382
:10172C00ACBF00F16040074A4FEA0313DBB2ABBF1A
:10173C0000F5614000F00F0080F80033135430BD09
:10174C0000ED00E014ED00E0002807DB0123410967
:10175C00034A00F01F00834042F82130704700BF5D
:10176C0000E100E000280CDB01220649430900F0EF
:10177C001F008240203341F82320BFF34F8FBFF36B
:10178C006F8F704700E100E00138B0F1807F0BD221
:10179C004FF0E023F021054A586182F82310002015
:1017AC00072298611A6170470120704700ED00E034
:1017BC00002808DB01224309034900F01F00824086
:1017CC00603341F82320704700E100E0704708B512
:1017DC00FFF7FCFF08BD704710B5044650B14379C4
:1017EC0003F0FF0213B90271FFF7F5FF012300208C
:1017FC00637110BD0120FCE790F821200346022AFA
:10180C0006D0042282630120002283F82020704736
:10181C000268C06B116821F00E011160116821F093
:10182C000101116001211A6C01FA02F242600020E0
:10183C0083F82110E8E7000008B590F82130022B5E
:10184C0003D004238363012008BD03681A6822F0C7
:10185C000E021A601A6822F001021A60164A9342AC
:10186C001CD0143293421BD0143293421AD014322F
:10187C0093421AD0143293421AD01432934214BFAA
:10188C004FF080734FF480130C4A53604FF4807305
:10189C000384436B03B198470020D5E70123F3E79A
:1018AC001023F1E74FF48073EEE74FF48053EBE72E
:1018BC004FF48033E8E700BF08000240000002400C
:1018CC00114AD36813F0100305D01049CB6943F0CB
:1018DC000203CB611023D268500706D50B4943F0A5
:1018EC000403CA6942F00102CA61074AD169C907F7
:1018FC0008D50648C16941F00401C161D16921F0E4
:10190C000101D161D3607047002002407833002080
:10191C00064B186910F0800007D0054A5A6002F196
:10192C0088325A601869C0F3C0107047002002401A
:10193C0023016745034A0020136943F080031361B8
:10194C00704700BF0020024070B50546FFF7A2FEAD
:10195C000646114CE368D80712D4E368990644BFD5
:10196C002023E360E368DA0606D4E369DB0703D4DB
:10197C00E06810F0040007D0FFF7A2FF012003E09D
:10198C006B1CE7D00DB9032070BDFFF783FE801BE5
:10199C00A842DFD9F7E700BF002002402DE9F84F3D
:1019AC00DFF894A01F469AF818300546012B88469C
:1019BC0091463FD001234CF250308AF81830FFF793
:1019CC00C3FF90BB012D03D0022D14BF04250225AB
:1019DC0000263346DFF864B03401C4F12001A4F1D1
:1019EC00200207FA01F129FA04F4CAF81C300C435E
:1019FC0027FA02F21443DBF81020A4B242F00102E1
:101A0C00CBF810204CF2503028F81640FFF79CFF12
:101A1C00DBF8102022F00102CBF8102028B9013697
:101A2C00F2B295424FF00003D6D800238AF8183052
:101A3C00BDE8F88F0220FBE778330020002002403D
:101A4C000022064BDA61064B1A6942F002021A6157
:101A5C0058611A6942F040021A61704778330020CD
:101A6C00002002402DE9F041264F05463B7E88467A
:101A7C00012B44D001243C7603684CF25030022BED
:101A8C001AD1FFF761FF20B1012000233B76BDE89E
:101A9C00F0811D4CF86123694CF2503043F0040383
:101AAC002361236943F040032361FFF74DFF236952
:101ABC0023F004032361E8E7FFF746FF0028E3D196
:101ACC004FF0FF33C8F800302046AE680E4CD5E915
:101ADC00023203EB8223B342D7D93046FFF7B0FF73
:101AEC004CF25030FFF730FF236923F002032361DF
:101AFC0010B1C8F80060C8E706F58066E7E7022079
:101B0C00C5E700BF7833002000200240044A08B526
:101B1C005169014202D0506103F046FB08BD00BF81
:101B2C0000040140F0B5044687B010B390F8A93218
:101B3C0003F0FF021BB980F8A82205F04FFA03232B
:101B4C0025466E4684F8A93255F8100B02F04FFC6E
:101B5C000FCD0FC62B6825463360271D55F8100B8B
:101B6C0097E80E0002F033FC064630B1022384F8ED
:101B7C00A9320125284607B0F0BD0146206802F0C5
:101B8C0040FC31464FF0010E28260846D4F804C01C
:101B9C00CAB2944501F101011DD8002128260A463C
:101BAC00C8B2844501F1010122D80FCD6E460FC693
:101BBC002B683360206897E80E0002F024FC054681
:101BCC000028D3D1012384F82400206884F8A9329A
:101BDC0002F0B6FECEE706FB0243C3E90E0083F823
:101BEC0029E083F82820DA8683F82B001864CFE7E5
:101BFC0006FB0043C3E95E2283F8692183F8680180
:101C0C0083F86B21C3F88021CAE738B590F8A83265
:101C1C000446012B10D0012580F8A852006802F070
:101C2C00DDFB2946204600F0FCFD206802F086FE14
:101C3C00002084F8A80238BD0220FCE710B590F80B
:101C4C00A8220446012A0BD0012280F8241080F827
:101C5C00A822006802F06CFE002084F8A80210BDD7
:101C6C000220FCE72DE9F04F044685B0006802F035
:101C7C0069FE000408D52827DFF808832068B0F82F
:101C8C0044301D0400F1C180206802F05BFE410568
:101C9C000FD522682046B2F8443023F480631B042D
:101CAC001B0CA2F8443005F006FA00212046FFF781
:101CBC00C5FF206802F046FE410408D52268B2F840
:101CCC00443023F480431B041B0CA2F844302068DE
:101CDC0002F038FE820408D52268B2F8443023F4AE
:101CEC0000531B041B0CA2F84430206802F02AFE9F
:101CFC00C3041CD522682046B2F8403023F00403FC
:101D0C001B041B0CA2F84030B2F8403023F008033F
:101D1C001B041B0CA2F8403005F0EAF92268B2F85B
:101D2C00443023F480531B041B0CA2F8443020686D
:101D3C0002F008FE070546D5684623680646194694
:101D4C001A4603F1200532F8047B954226F8027BF3
:101D5C00F9D1B3F8402092B242F00102A3F840202E
:101D6C00B3F8402022F001021204120CA3F8402018
:101D7C00B3F844205605FBD5B3F8442022F4806216
:101D8C001204120CA3F8442030F8022B21F8042B77
:101D9C008D42F9D1B3F84020204692B242F00802AD
:101DAC00A3F84020B3F8442022F400621204120C71
:101DBC00A3F84420B3F8402092B242F00402A3F8F6
:101DCC00402005F085F9206802F0BCFD82050BD59A
:101DDC0022682046B2F8443023F400731B041B0C19
:101DEC00A2F8443005F063F9206802F0ABFDC3059E
:101DFC0008D52268B2F8443023F480731B041B0C02
:101E0C00A2F8443005B0BDE8F08FB0F84450A9B248
:101E1C0015F00F0540F0C18011F010012DD1038891
:101E2C009BB203EA080343F400430380B0F850303C
:101E3C0094F828209BB203EBC20300EB4303B3F8E6
:101E4C000434E26BC3F309031A4463642046E2636F
:101E5C0005F025F994F82430002B3FF40FAF226CD9
:101E6C002168002A7FF40AAF94F8243043F08003F1
:101E7C00A1F84C3084F8242000E70588ABB215F4A7
:101E8C00006521D0B0F8503094F868219BB203EB78
:101E9C00C20300EB4303B3F80C34B4F86E21C3F364
:101EAC000903C4F8843104F52C7103F025F8226879
:101EBC002046138823F070031B051B0D43F0800391
:101ECC00138005F0DDF8D9E61A047FF5D7AE038848
:101EDC0023F070031B051B0D43F080030380B0F847
:101EEC00503094F868219BB203EBC20300EB430320
:101EFC00B3F80C34C3F30903C4F884318BB1D4F8B0
:101F0C007C1171B1B4F86E2102F0F6FFD4F87C317B
:101F1C00D4F88421294613442046C4F87C3105F0BA
:101F2C00B5F821680B881B053FF5A8AEB1F8503009
:101F3C00D4F878519BB201F20C40DDB9C25A22F4AC
:101F4C00F8421204120CC252C25A6FEA42426FEAB1
:101F5C00524292B2C2520B8823F4804323F0700396
:101F6C001B041B0C83F4405343F4004343F08003E5
:101F7C000B8083E63E2D07D86A08EE0748BF013276
:101F8C009202E6E70F8FFFFF6E09C24AED0608BF0B
:101F9C0006F1FF3642EA8622DBE730F825301904D9
:101FAC009EB240F1F28030F8253007FB054123F05A
:101FBC0070031B051B0D43F0800320F8253091F8AE
:101FCC00743100F5806EBBB9B0F8503091F86821CF
:101FDC009BB2063303EBC2033EF81390C9F3090915
:101FEC00B9F1000F00F0B6804B46B1F86E21D1F874
:101FFC007C1102F081FFADE091F86B3191F8682112
:10200C00022B40F08580B0F850904FEAC20B1FFABB
:10201C0089F916F4804AD1F88031D94406F0400C85
:10202C003BD009F102093EF81990C9F30909994509
:10203C001FD8A3EB0903C1F88031EBB1BCF1000F41
:10204C000DD030F8223023F4E04323F070031B044E
:10205C001B0C43F4004343F0C00320F82230B9F1C9
:10206C00000F77D0282101FB05414B46B1F87021B8
:10207C00BDE70023C1F8803130F8223023F48043CF
:10208C0023F070031B041B0C83F4005343F4004334
:10209C0043F0800320F82230D0E709F106093EF81E
:1020AC001990C9F3090999451FD8A3EB0903C1F885
:1020BC008031E3B1BCF1000F0DD130F8223023F4A4
:1020CC00E04323F070031B041B0C43F4004343F068
:1020DC00C00320F82230B9F1000F3BD0282101FBBE
:1020EC0005414B46B1F8722181E7C1F880A130F867
:1020FC00223023F4804323F070031B041B0C83F465
:10210C00005343F4004343F0800320F82230D1E71E
:10211C0030F8223023F4E04323F070031B041B0C33
:10212C0043F4004343F0C00320F8223091F86831A7
:10213C0030F82320DB0012F4804FB0F8502092B21C
:10214C0054D0023213443EF81390C9F30909B9F183
:10215C00000F8AD107FB05F16318D3F884214A4498
:10216C00C3F88421D3F87C214A44C3F87C21D3F8EA
:10217C0080211AB1D3F87831994541D207FB054338
:10218C00204693F8681104F081FF320620687FF531
:10219C0075AD30F8253007FB05499BB203EA0803FF
:1021AC0043F4004320F8253099F82B3099F8281087
:1021BC00032B04D01BB1022B37D1F30535D4B0F867
:1021CC00503007FB05429BB2023303EBC10300EB1B
:1021DC004303B3F80034166CC3F309039E4216D8BC
:1021EC0000232046136404F05AFF47E506321344DB
:1021FC003EF81390C9F30909B9F1000FAAD070E7A2
:10220C0001F5B4712068214402F0B2FBBDE7D16B3B
:10221C00F61A1944D163516C16641944516405FBC8
:10222C000771214402F0A4FB28E5282202FB054299
:10223C00B0F850C04FEAC10B1FFA8CFC16F0400EE0
:10224C00136C00F5806ADC4406F4804600F0EC80E8
:10225C000CF1020C3AF81CC0CCF3090C9C451BD3B6
:10226C000025156499F82930B6B2002B54D0012BF7
:10227C0079D1B0F850C000F204421FFA8CFC0B016B
:10228C006244D552B0F8502000F20C4092B2104487
:10229C00C55268E00080FFFFA3EB0C031364002E13
:1022AC0079D1282303FB054393F84C20012A40F0F5
:1022BC00F880DA6BD3F848E002EB0C065A6CDE635C
:1022CC0062445A649A6B964574D3AEEB020EC3F813
:1022DC0048E099F829C093B2BCF1000F40F0978008
:1022EC00B0F850E000F2044C1FFA8EFEF4440901E1
:1022FC00002A6CD13CF8012022F4F8421204120C92
:10230C002CF801203CF801206FEA42426FEA52425D
:10231C0092B22CF8012068E0B0F8502000F204458D
:10232C0092B20B011544EA5A22F4F8421204120C30
:10233C00EA52EA5A6FEA42426FEA524292B2EA52C7
:10234C00B0F8502000F20C4092B21044C25A22F461
:10235C00F8421204120CC252C25A6FEA42426FEA9D
:10236C00524292B2C252204604F099FE002E00F066
:10237C00988099F82810226832F8213023F4E04331
:10238C0023F070031B041B0C43F4404343F0800305
:10239C0022F8213085E030F8213023F4E04323F09B
:1023AC0070031B041B0C43F4404343F0800320F8E0
:1023BC00213076E7BEF1000F03D1624683F84CE082
:1023CC0087E7002283F84C209A64724681E73E2A04
:1023DC0013D84FEA520ED20748BF0EF1010E4FEA46
:1023EC008E2E1FFA8EFE2CF801E0282202FB0542ED
:1023FC00128E314602F0ACFA53E04FEA521ED2066E
:10240C007D4A08BF0EF1FF3E42EA8E2280E7BCF106
:10241C00010FEAD1B0F850C000F204421FFA8CFC54
:10242C00624409015352E0E70CF1060C3AF81CC067
:10243C00CCF3090C9C4549D9C2F840E0B6B299F8E6
:10244C002930002B40F08E80B0F8502000F204456B
:10245C0092B20B011544EA5A22F4F8421204120CFF
:10246C00EA52EA5A6FEA42426FEA524292B2EA5296
:10247C00B0F8502000F20C4092B21044C25A22F430
:10248C00F8421204120CC252C25A6FEA42426FEA6C
:10249C00524292B2C252204604F001FE002E3FF48A
:1024AC0068AF99F82810226832F8213023F4E04301
:1024BC0023F040031B041B0C83F0300343F4004354
:1024CC0043F0800322F82130FFF7D8BBA3EB0C03B9
:1024DC001364B6B2002BB2D06EB930F8213023F4AD
:1024EC00E04323F070031B041B0C43F4404343F004
:1024FC00800320F82130282303FB054393F84C205C
:10250C00012ACED15A6CDE6B6244D3F848E05A648F
:10251C009A6B66449645DE6337D3AEEB020EC3F876
:10252C0048E099F829C093B2BCF1000F57D1B0F82C
:10253C0050E000F20C4C1FFA8EFEF44409018ABBE9
:10254C003CF8012022F4F8421204120C2CF8012061
:10255C003CF801206FEA42426FEA524292B22CF8E8
:10256C0001202DE0012B96D1B0F8505000F204421E
:10257C00ADB22A4400250B01D552B0F8502000F220
:10258C000C4092B21044C55285E7BEF1000F03D146
:10259C00624683F84CE0C4E700229A6483F84C202E
:1025AC007246BEE73E2A10D84FEA520ED20748BFF9
:1025BC000EF1010E4FEA8E2E1FFA8EFE2CF801E062
:1025CC00282202FB05456A8E13E74FEA521ED206FB
:1025DC00094A08BF0EF1FF3E42EA8E22BEE7BCF16B
:1025EC00010FEDD1B0F8502000F20C4C92B2944493
:1025FC000A012CF80230E3E70080FFFF11F0800F96
:10260C0070B5054601F007004FF028011CD00124DD
:10261C0000FB011129444C700A614A780870CB7098
:10262C0002B1C881022B04BF00230B7195F8A832AC
:10263C00012B13D00123286885F8A83201F0F8FE8D
:10264C00002085F8A80270BD002601FB00F404F5FB
:10265C00B4712C44294484F86961DDE70220F2E767
:10266C0011F0800F10B501F0070204464FF028015D
:10267C0013D0012302FB011101444B700A7094F832
:10268C00A832012B13D00123206884F8A83202F061
:10269C0013F8002084F8A80210BD01FB02F303F527
:1026AC00B47101440344002083F86901E6E7022079
:1026BC00F2E770B52824002601F007014C430519F8
:1026CC0085F8681104F5B4710144C5E95F23C5F8B8
:1026DC00846185F86961006802F04AF9304670BD82
:1026EC00282301F0070103FB0100D0F88401704797
:1026FC0070B501F00705282101FB05040026C4E98B
:10270C000F23012205FB011184F84C200144A36422
:10271C00666484F8292084F82850006802F028F9AF
:10272C00304670BD38B5436801F007059D4204463C
:10273C0028D811F0800F4FF028031AD005FB033373
:10274C00C11801234B7001230D708B7094F8A822D3
:10275C009A4219D0206884F8A83202F080F825B982
:10276C00206804F52C7102F0F1F8002084F8A8021E
:10277C0038BD00224B4303F5B4710344014483F884
:10278C006921E0E70120F3E70220F1E738B543685F
:10279C0001F00F029A42044626D811F0800F01F086
:1027AC0007024FF0280115D0012302FB011101444F
:1027BC004B7000250A708D7094F8A832012B15D03F
:1027CC000123206884F8A83202F069F8284684F8BE
:1027DC00A85238BD01FB02F303F5B4710144034464
:1027EC00002083F86901E4E70120F2E70220F0E71A
:1027FC0010B5282411F0800F1BBF01F0070101FB5D
:10280C00044404FB0100001908BF00F5B47099B230
:10281C001AB90273C180002010BD012283600273BB
:10282C00F9E770472DE9F341054638B30368DB0738
:10283C0010D42B689F075ED42B68190700F1958084
:10284C002B685A0700F1C180EB69002B40F02C81FA
:10285C00002029E0904C636803F00C03042B07D094
:10286C00636803F00C03082B0AD16368DE0307D5F9
:10287C0023689C03DDD56B68002BDAD1012013E0B3
:10288C006B68B3F5803F12D1236843F48033236027
:10289C00FEF700FF064623689803CAD4FEF7FAFE3B
:1028AC00801B6428F7D9032002B0BDE8F0819BB9E6
:1028BC00236823F480332360236823F4802323606C
:1028CC00FEF7E8FE064623689903B2D5FEF7E2FE52
:1028DC00801B6428F7D9E6E7B3F5A02F236803D152
:1028EC0043F480232360CFE723F4803323602368F1
:1028FC0023F48023CBE7684C636813F00C0F07D0EC
:10290C00636803F00C03082B10D16368DA030DD451
:10291C0023689B0702D52B69012BAFD123686A6909
:10292C0023F0F80343EAC203236085E72A695B4B73
:10293C006AB101221A60FEF7ADFE064623689F07B6
:10294C00ECD4FEF7A7FE801B0228F7D9ABE71A6080
:10295C00FEF7A0FE0646236898077FF56DAFFEF7DD
:10296C0099FE801B0228F6D99DE7AA694A4E4B4B6B
:10297C00E2B10122C3F88024FEF78CFE0446736A90
:10298C009B070DD54FF4FA52454B1B68B3FBF2F382
:10299C00019300BF019B5A1E0192002BF9D14FE706
:1029AC00FEF778FE001B0228E9D97CE7C3F88024E7
:1029BC00FEF770FE0446736A9F077FF541AFFEF782
:1029CC0069FE001B0228F6D96DE7334CE369D80089
:1029DC0024D40127E36943F08053E361E36903F0F6
:1029EC0080530093009B2F4E3368D90518D5EB68A4
:1029FC00012B26D1236A43F001032362FEF74AFE22
:102A0C0041F288380646236A9B073FD5002F3FF4D6
:102A1C001BAFE36923F08053E36115E70027E2E77E
:102A2C00336843F480733360FEF734FE80463368BA
:102A3C00DA05DCD4FEF72EFEA0EB08006428F6D9EC
:102A4C0031E7ABB9236A41F2883823F001032362E2
:102A5C00236A23F004032362FEF71CFE0646236A56
:102A6C009807D3D5FEF716FE801B4045F7D91AE719
:102A7C00052B236A03D143F004032362BAE723F046
:102A8C0001032362236A23F00403B6E7FEF702FE78
:102A9C00801B4045B7D906E70010024000004242B7
:102AAC0070000020007000402A4C626802F00C029A
:102ABC00082A3ED00022022B274B1A662CD1FEF797
:102ACC00E9FD06462368990120D42B6AB3F5803FB3
:102ADC0005D16268A96822F400320A436260696A0F
:102AEC0062680B4322F474121343012263601A4B85
:102AFC001A66FEF7CFFD054623689A013FF5A8AE8E
:102B0C00FEF7C8FD401B0228F6D9CCE6FEF7C2FD45
:102B1C00801B0228D6D9C6E6FEF7BCFD0546236805
:102B2C009B017FF595AEFEF7B5FD401B0228F6D94B
:102B3C00B9E6012B3FF4A2AE60682B6A00F4803238
:102B4C009A427FF49BAE6B6A00F47010C01A18BFE7
:102B5C000120A9E6001002400000424230B5184B9B
:102B6C0087B002AC03F11005224618685968083387
:102B7C0003C2AB421446F7D140F201231149ADF820
:102B8C0004304B6803F00C02082A17D1C3F38342BC
:102B9C0018326A44DB0312F8100C0CD54B680A4A45
:102BAC00C3F34043504318336B4413F8143CB0FB4D
:102BBC00F3F007B030BD054B5843FAE70248F8E78D
:102BCC00889300080010024000127A0000093D00B2
:102BDC002DE9F0410D46044610B90120BDE8F08105
:102BEC00444A136803F007038B4228D321688E07ED
:102BFC0030D4CA0743D43F4A136803F00703AB42EF
:102C0C0065D822683C4D12F0040F6CD1130706D521
:102C1C006B68226923F4605343EAC2036B60FFF7CD
:102C2C009DFF6B68354AC3F30313D35CD840344B18
:102C3C001860344B1868FEF7EBFC0020CEE71368E5
:102C4C0023F007030B431360136803F007038B4255
:102C5C00C3D1CBE7284B11F0040F1EBF5A6842F4C6
:102C6C00E0625A60080742BF5A6842F460525A60E8
:102C7C005A68A06822F0F00202435A60B9E7626811
:102C8C001D4E012A33681AD113F4003FA5D0736886
:102C9C0041F2883823F0030313437360FEF7FAFC08
:102CAC0007467368626803F00C03B3EB820FA2D083
:102CBC00FEF7F0FCC01B4045F3D903208EE7022A37
:102CCC0002D113F0007FE1E713F0020FDEE7136887
:102CDC0023F007032B431360136803F00703AB4285
:102CEC007FF47BAF8DE76B68E16823F4E0630B4303
:102CFC006B608BE70020024000100240F893000844
:102D0C007000002050000020044B054A5B68C3F3A0
:102D1C000223D35C034A1068D8407047001002406D
:102D2C00F093000870000020044B054A5B68C3F365
:102D3C00C223D35C034A1068D8407047001002408D
:102D4C00F0930008700000200F2303600B4B5A68AF
:102D5C0002F0030242605A6802F0F00282605A6884
:102D6C0002F4E062C2605B68DB0803F4E0630361B9
:102D7C00034B1B6803F007030B6070470010024005
:102D8C000020024003682DE9F3410546D80721D500
:102D9C00364CE369D9002BD40126E36943F0805308
:102DAC00E361E36903F080530193019B304F3B686F
:102DBC00DA051FD5236A6A6813F440732ED1236A8F
:102DCC006A6823F44073134323621EB1E36923F052
:102DDC008053E3612A68910706D52449A8684B689B
:102DEC0023F4404303434B60D30636D4002012E057
:102DFC000026DBE73B6843F480733B60FEF74AFC3C
:102E0C0080463B68DB05D5D4FEF744FCA0EB0800FC
:102E1C006428F6D9032002B0BDE8F08102F44072B8
:102E2C009A42CCD00120134A236AC2F840040020F5
:102E3C0023F44071DF07C2F840042162BFD5FEF7CE
:102E4C0029FC41F288380746236A9807B7D4FEF765
:102E5C0021FCC01B4045F7D9DCE7044AE9685368FC
:102E6C0023F480030B435360C0E700BF0010024003
:102E7C000070004000004242036A70B523F0010369
:102E8C000362036A446882690D6822F073022A4364
:102E9C008D6823F002032B430A4DA8420BD1CD6859
:102EAC0023F008032B4324F44074D1E90556354331
:102EBC0023F004032C43446082614A68426303623A
:102ECC0070BD00BF002C0140036A70B523F4807301
:102EDC000362036A4468C2690D6822F073022A43D4
:102EEC008D6823F4007343EA05230B4DA8420DD1E2
:102EFC00CD6823F4006343EA052324F44054D1E95C
:102F0C000556354323F4806344EA05144460C261DA
:102F1C004A68C263036270BD002C0140036A30B57D
:102F2C0023F480530362036A4468C2690D6822F477
:102F3C00E64242EA05228D6823F4005343EA053346
:102F4C00064DA84202BF4D6924F4804444EA85141E
:102F5C004460C2614A680264036230BD002C0140C7
:102F6C0090F83D30012B1CD102230F4A80F83D30E4
:102F7C00036893420AD0B3F1804F07D0A2F5943284
:102F8C00934203D002F58062934204D19A6802F016
:102F9C000702062A03D01A6842F001021A600020C8
:102FAC0070470120704700BF002C014090F83C2076
:102FBC000346012A4FF0020009D01A6883F83D003D
:102FCC0051610020012283F83C0083F83D207047BA
:102FDC0070477047036810B51A69044691070ED5FF
:102FEC00DA6892070BD56FF002021A6101220277A0
:102FFC009B699B0777D001F0E8F9002323772368BE
:10300C001A69500710D5DA6851070DD56FF0040214
:10301C001A61022222779B69204613F4407F68D004
:10302C0001F0D3F90023237723681A6912070FD50F
:10303C00DA6810070CD56FF008021A6104222277A7
:10304C00DB69204699075AD001F0BFF9002323779A
:10305C0023681A69D20610D5DA68D0060DD56FF040
:10306C0010021A6108222277DB69204613F4407F94
:10307C004BD001F0AAF90023237723681A69D107F2
:10308C0008D5DA68D20705D56FF0010220461A611F
:10309C0001F078F923681A69100608D5DA68110668
:1030AC0005D56FF0800220461A6100F0FAFA236809
:1030BC001A69520608D5DA68500605D56FF0400239
:1030CC0020461A61FFF785FF23681A69910622D5FD
:1030DC00DA6892061FD56FF020022046BDE810403A
:1030EC001A6100F0DDBA01F06EF92046FFF770FFAF
:1030FC0083E701F068F92046FFF76AFF92E701F0D9
:10310C0062F92046FFF764FFA0E701F05CF9204666
:10311C00FFF75EFFAFE710BD134A036890420AD079
:10312C00B0F1804F07D0A2F59432904203D002F553
:10313C008062904207D14A6823F070031343CA6837
:10314C0023F4407313434A6923F080031343036051
:10315C008B68C3620B688362034B984204BF0B6994
:10316C000363012343617047002C014010B50446F2
:10317C0030B390F83D3003F0FF021BB980F83C20CF
:10318C0002F0E2FB0223206884F83D30211DFFF79A
:10319C00C3FF0123002084F8463084F83E3084F8C5
:1031AC003F3084F8403084F8413084F8423084F861
:1031BC00433084F8443084F8453084F83D3010BDF9
:1031CC000120FCE7036A70B523F010030362036A65
:1031DC00446882690D6822F4E64242EA05228D6851
:1031EC0023F0200343EA05130B4DA8420DD1CD6803
:1031FC0023F0800343EA051324F44064D1E9055617
:10320C00354323F0400344EA8504446082614A68F4
:10321C008263036270BD00BF002C014010B590F8B2
:10322C003C300446012B1BD0082A15D006D85AB1C5
:10323C00042A0DD0002084F83C0010BD0C2AF9D1D2
:10324C000068FFF76BFEF5E70068FFF715FEF1E786
:10325C000068FFF7B7FFEDE70068FFF735FEE9E719
:10326C000220EAE738B590F83C300446012B4ED0EA
:10327C000123082A80F83C3039D006D8BAB1042A88
:10328C0025D0002084F83C0038BD0C2AF9D1006808
:10329C00FFF744FEC3690A6943F40063C361C36961
:1032AC0023F48063C361C36943EA02232DE0006801
:1032BC00FFF7E2FD83690A6943F0080383618369C0
:1032CC0023F004038361836913438361D9E70068A6
:1032DC00FFF778FF83690A6943F4006383618369AC
:1032EC0023F480638361836943EA0223EDE700687A
:1032FC00FFF7EAFDC3690A6943F00803C361C369B8
:10330C0023F00403C361C3691343C361B9E702200B
:10331C00BAE7000070B5046A124E24F0010404628E
:10332C00B0428469056A19D0B0F1804F16D0A6F569
:10333C009436B04212D006F58066B0420ED044F0FE
:10334C0001021B0122F0F002DBB2134301F00A016F
:10335C0025F00A0211438361016270BD24F003045D
:10336C002243EEE7002C0140F8B590F83C300446BF
:10337C00012B0D46174673D0012380F83C30EB68C7
:10338C00006806C96FB9FFF7C5FF8369AA6823F007
:10339C000C038361836913438361002084F83C0030
:1033AC00F8BD042FAE68056A1DD125F01005056225
:1033BC008569076A25F4407545EA02251B03090156
:1033CC0025F470459BB227F0A00701F0A0012B4318
:1033DC00394383610162836923F4406383618369A8
:1033EC0043EA0623D8E7082F1CD125F48075056223
:1033FC00C569076A25F0030515431B01090225F071
:10340C00F005DBB227F4007701F400712B4339434C
:10341C00C3610162C36923F00C03C361C369334305
:10342C00C361BAE725F480550562C569076A25F4BE
:10343C00407545EA02251B03090325F470459BB230
:10344C0027F4005701F400512B433943C361016247
:10345C00C36923F44063C361C36943EA0623DFE70E
:10346C0002209DE710B50124036A01F01F018C4076
:10347C0023EA04030362036A8A401A43026210BD02
:10348C0008B529B990F83E30012B1DD001202FE052
:10349C00042907D190F83F30012BF7D1022380F893
:1034AC003F3014E0082907D090F84130012BEDD1C2
:1034BC00022380F841300AE090F84030012BE5D12E
:1034CC00022380F8403002E0022380F83E3000688E
:1034DC000122FFF7C7FF0E4B98420AD1436C43F40D
:1034EC0000434364836803F00703062B0BD10020D1
:1034FC0008BDB0F1804FF5D0064B9842F2D003F5E1
:10350C0080639842EED0036843F001030360EEE75A
:10351C00002C014000040040FFF7B2BF034610B579
:10352C0059BB90F83E4093F84220012CE0B2D2B245
:10353C0057D1012A20D1022283F83E2083F8422061
:10354C0018680122FFF78EFF274B98420AD0B0F182
:10355C00804F07D0A3F59433984203D003F58063D2
:10356C00984204D1836803F00703062B03D0036849
:10357C0043F001030360002010BD04290FD190F823
:10358C003F4093F84320012CE0B2D2B229D1012A5A
:10359C00F2D1022283F83F2083F84320D0E7082998
:1035AC000FD090F8414093F84520012CE0B2D2B2F4
:1035BC0017D1012AE0D1022283F8412083F845205B
:1035CC00BEE790F8404093F84420012CE0B2D2B210
:1035DC0007D1012AD0D1022283F8402083F844205D
:1035EC00AEE70120C8E700BF002C014010B5042451
:1035FC00036A01F01F018C4023EA04030362036A8F
:10360C008A401A43026210BD08B529B990F84230BD
:10361C00012B1DD001203EE0042907D190F8433046
:10362C00012BF7D1022380F8433014E0082907D08E
:10363C0090F84530012BEDD1022380F845300AE09B
:10364C0090F84430012BE5D1022380F8443002E09D
:10365C00022380F8423000680422FFF7C7FF436C56
:10366C0043F4004343640C4B98420AD0B0F1804FB2
:10367C0007D0A3F59433984203D003F580639842A6
:10368C0004D1836803F00703062B03D0036843F0CF
:10369C0001030360002008BD002C0140FFF7B4BFFC
:1036AC00704770470368DA6822F49072DA605A69DE
:1036BC0022F001025A61026B012A02BFDA6822F081
:1036CC001002DA60202380F83E3000230363704739
:1036DC0010B504460368C1681A6922F440520A43C3
:1036EC001A6182680069D9680243606921F4B0519B
:1036FC0021F00C0102430A43DA605A69A16922F4F1
:10370C0040720A435A610E4A934215D1FFF70CFBE3
:10371C0019234343626820689200B3FBF2F36422DE
:10372C00B3FBF2F102FB11331B013233B3FBF2F3A7
:10373C0003EB0113836010BDFFF7E6FAE8E700BF67
:10374C0000380140F8B504460E4617461D4622685F
:10375C00136836EA030301D1002014E06B1CF7D088
:10376C0095B923680320DA6822F4D072DA605A69BA
:10377C0022F001025A61202384F83D3084F83E3057
:10378C00002384F83C30F8BDFDF784FFC01B854254
:10379C00DDD2E6E7704710B5044640B390F83D30F3
:1037AC0003F0FF021BB980F83C20FFF7F3FF242342
:1037BC00226884F83D30D368204623F40053D3604C
:1037CC00FFF786FF236800201A6922F490421A61E1
:1037DC005A6922F02A025A61DA6842F40052DA601D
:1037EC002023206484F83D3084F83E3010BD012045
:1037FC00FCE710B5044660B390F83D3003F0FF02CF
:10380C001BB980F83C20FFF7C5FF2423226884F8FD
:10381C003D30D368204623F40053D360FFF758FFA4
:10382C00236800201A6922F490421A615A6922F026
:10383C0022025A615A6942F008025A61DA6842F46B
:10384C000052DA602023206484F83D3084F83E3046
:10385C0010BD0120FCE72DE9F843984690F83D3067
:10386C000446202B0E46174648D1002944D0002A86
:10387C0042D090F83C30012B40D00123002580F839
:10388C003C302123056480F83D30FDF703FFA3682D
:10389C008146B3F5805FA784E78403D123690BB914
:1038AC0035461E46002384F83C30E38C9BB253B95A
:1038BC0043464A4640212046FFF744FF50B9202397
:1038CC0084F83D3007E043464A4680212046FFF706
:1038DC0039FF10B10320BDE8F88322684EB935F8E2
:1038EC00023BC3F308035360E18C013989B2E184D4
:1038FC00DBE716F8013BF6E70120ECE70220EAE7EC
:10390C0090F83D30202B18D1A9B1A2B190F83C30E1
:10391C00012B12D0C284002382842122016201680F
:10392C00036480F83C3080F83D20CA68184642F0A9
:10393C008002CA607047012070470220704708B5AA
:10394C000023406AC385C38402F010FA08BD704797
:10395C0090F83E3007B5222B37D181680268B1F55B
:10396C00805F836A34D10169002934D15268C2F373
:10397C00080223F8022BC28D8362013A92B2C285EF
:10398C001ABB0368D96821F02001D960D96821F4E9
:10399C008071D960596921F001015961202180F8A9
:1039AC003E10016B012920D10263D96821F010016E
:1039BC00D9601968C90605D501921A6801925B682D
:1039CC000193019B818DFFF7C2FF03B05DF804FBEF
:1039DC0039B9016929B95268D2B21A70836A0133B4
:1039EC00C9E7526802F07F02F7E702F0B9F9ECE799
:1039FC00036837B51A68044612F00F0FD9685D6971
:103A0C0009D1950640F182808D067FD503B0BDE8C3
:103A1C003040FFF79DBF15F0010543D012F0010FA8
:103A2C0002F004035BD11BB1236C43F0020323644B
:103A3C00900741D5236C12F0080F43F00403236464
:103A4C0003D0236C43F008032364236C002B57D062
:103A5C00920604D58B0602D52046FFF779FF216824
:103A6C0020464B69226C03F0400302F0080253EA33
:103A7C00020547D0FFF716FE4B695D063DD54B6935
:103A8C00A06B23F040034B61002836D0694B436395
:103A9C00FDF7D2FE002833D0A06B436B03B0BDE81A
:103AAC003040184711F4907F30D012F0010F02F023
:103ABC00040307D193070DD41007C6D501F02003DA
:103ACC002B43BDE7C8050FD4002BF3D19307F3D5D7
:103ADC00002DAFD11507B8D511F0200FB0E7C805F0
:103AEC0002D4002BA0D1F1E7236C500743F0010363
:103AFC002364EBD5002DDDD096E7204602F036F995
:103B0C0003B030BD02F032F92564F9E7206B0128CF
:103B1C0055D1D00653D5CD0651D5002101911A6847
:103B2C0001925A680192019A5A6912F040022AD005
:103B3C00A06B0268526892B2002AE1D0A58D954222
:103B4C00DED9E2858269202A15D0DA6822F48072E7
:103B5C00DA605A6922F001025A615A6922F0400275
:103B6C005A61202284F83E202163DA6822F0100288
:103B7C00DA60FDF741FEE38DA18DC91A89B22046AA
:103B8C00FFF7E5FEBCE7E08DE58DA18DADB280B20F
:103B9C00002DB5D0091A89B20029B1D0D86820F40B
:103BAC009070D860586920F001005861202084F88A
:103BBC003E002263DA6822F01002DA60DFE71006BA
:103BCC0026D50D0624D594F83D20212A98D1A1683C
:103BDC00226AB1F5805F16D12169A1B932F8021BB6
:103BEC00C1F3080159602262E28C013A92B2E2847C
:103BFC00002A85D1DA6822F08002DA60DA6842F0B5
:103C0C004002DA607CE7511C216212785A60EBE7C3
:103C1C0050067FF575AF4A067FF572AFDA6820461D
:103C2C0022F04002DA60202384F83D3002F09BF849
:103C3C0066E700BF4B39000890F83C30012B11D0DF
:103C4C002423026880F83D30D36823F00C0343F042
:103C5C000803D360202380F83D30002380F83C30EB
:103C6C00184670470220704790F83C30012B11D059
:103C7C002423026880F83D30D36823F00C0343F012
:103C8C000403D360202380F83D30002380F83C30BF
:103C9C00184670470220704790F83D2090F83E007F
:103CAC0010437047C2858285816203462222002020
:103CBC00186483F83C0083F83E201B68DA6842F4F1
:103CCC008072DA605A6942F001025A61DA6842F095
:103CDC002002DA60704770B490F83E60202E0DD14F
:103CEC0049B142B190F83C40012C07D00024046348
:103CFC0070BCFFF7D7BF012070BC70470220FBE7F8
:103D0C00836810B504462BB1032201469847002363
:103D1C00C4E9023310BD836810B5044613B1032205
:103D2C0001469847204610BD4B1E032B9ABF8800B6
:103D3C0004384FF0FF3070470139435C2BB1022936
:103D4C0007D8054B33F811007047032901D8034BF2
:103D5C00F8E74FF0FF307047AA930008A2930008D1
:103D6C00013903299ABF024B585C4FF0FF30704762
:103D7C009D930008013903299ABF024B58564FF006
:103D8C00FF30704799930008F8B50446FFF7CCFF55
:103D9C000246501C0E4600D1FEE72046FFF7E0FF1E
:103DAC00411C054600D1FEE731462046FFF7C4FF13
:103DBC00013000D1FEE7B71D04EB0717BB682BB130
:103DCC00E94323691961D9680D43DD60731E04EB67
:103DDC00430189880C293FD8DFE801F046461414CA
:103DEC0014070714143F3F3F2100E35C114604F114
:103DFC0010001BB1BDE8F840FFF750BCBDE8F8401F
:103E0C00FFF78ABBE35C114604F110001BB1BDE85F
:103E1C00F840FFF7F9BBBDE8F840FFF731BB11469E
:103E2C0004F11000FFF77AFB31462046FFF7A2FFA2
:103E3C00014605462046FFF77FFF2269136A1843A7
:103E4C00BB68106243B129462046FFF789FFC34384
:103E5C001361D3681843D060F8BD04F1100011460B
:103E6C00BDE8F840FFF75ABB23691B68DB07F3D4A6
:103E7C0004F11000BDE8F840FFF772B8836E10B57E
:103E8C00044653B16FF0010250F8103F1A61DA6822
:103E9C0042F00102DA60FFF763F820460121FFF7D8
:103EAC0073FF20460221FFF76FFF20460321FFF727
:103EBC006BFF2046BDE810400421FFF765BF0000F2
:103ECC002DE9F0478CB099460446FFF72DFF431CB3
:103EDC0088461746054600D1FEE74FF6FF7305935B
:103EEC002369C8B95B6B002606930123CDE90966EB
:103EFC00CDE90236079608960B960196049608F1C2
:103F0C00FF3A0C2F30D8DFE807F010162850535525
:103F1C005E606266646D6F00042801D19B6BE2E702
:103F2C0008280CBFDB6B1B6CDDE705962A4605A940
:103F3C0004F1100016E004EB4808B8F802304BB15D
:103F4C0000232A46A8F8023005A904F110000593B5
:103F5C00FFF764F90CB0BDE8F08710232A460593EF
:103F6C0005A9E018FFF75AF904EB4A03B9F1FF3F32
:103F7C009F80EFD0484601F029FDA8424ED148461B
:103F8C002749093F01F0BCFB032F05D8484602F036
:103F9C0063F9002103F084FA4846214901F0EAFB59
:103FAC00C0F3005004F80A00D4E720230593BDE7C2
:103FBC003023FBE760232A4605A904F11000059382
:103FCC00FFF750F9D0E77023F5E75023EEE74023D5
:103FDC00ECE7022301932A4601A904F11000FFF734
:103FEC00C3F9C1E70A23F5E704F110062A4601A933
:103FFC003046FFF7B9F941462046FFF7BBFE0C22CD
:10400C0004EB40035A80022301462046CDE90133DC
:10401C00FFF78AFE01A902463046E0E7FEE700BF43
:10402C001C950008013903299ABF00EB41008088D8
:10403C000020704701211030FEF7B8BF03691868E3
:10404C0000F00100704710B502460C46FFF7F6FF72
:10405C0080B9CB68DB070ED5CB68104623F0010383
:10406C00CB60FFF7E7FF6FF001032361E36843F0D8
:10407C000103E36010BD1046BDE81040FFF7DABF46
:10408C000C4A034690420ED0B0F1804F0DD0A2F5F1
:10409C00943290420BD04FF6FF7002F5806293423F
:1040AC0008BF032070470020704701207047022092
:1040BC00704700BF002C0140014670B5044651F812
:1040CC00100FFFF7DDFF0546084601F0CFFB00237C
:1040DC00084A04F1600642F82530E36004F1B005AB
:1040EC00B54204D0103D2846FFF715FEF8E72046F0
:1040FC0070BD00BF98330020F8B504460846FFF7A2
:10410C00BFFF4FF6FF73984200D1FEE7236903B15E
:10411C00FEE71C4D04F10C0245F820200E2204F1A0
:10412C0010063046C4E90C33C4E90E33C4E910332D
:10413C00C4E91623216184F82C30A36484F84C3034
:10414C0084F84D30E46001F04DFB04F1600504F19E
:10415C00B00728461035FFF7D3FDBD42F9D1002337
:10416C004FF6FF72C4E90033C4E90632C4E90833E0
:10417C00A360636180233046A362BDE8F840FEF77C
:10418C00F5BF00BF9833002010B586B0142204464A
:10419C00002101A804F0EDF80023694601A8009362
:1041AC00FEF7D2FD206901F0F7FB012802D00228AE
:1041BC000FD0FEE7049CFEF7A7FDB4F5C06F05D049
:1041CC000BD824F48074B4F5806F00D1400006B095
:1041DC0010BD059CFEF7A8FDEFE7B4F5E06FF4E722
:1041EC00012A38B505460C460BD0022A16D004B16C
:1041FC00013C29692846CC62EC61BDE83840FFF7E8
:10420C0022BFFFF7C1FF084BB0FBF3F044432A6910
:10421C00230C93620133B4FBF3F4E8E7FFF7B4FF2C
:10422C00B0FBF4F4F3E700BF40420F00F8B50546CD
:10423C0014461A46FFF778FD2B69411C06469F6A07
:10424C0000D1FEE7822A07F1010730D01CD8102AD2
:10425C0007D842B1DB6A03FB044301249440013CC0
:10426C0018E0812A19D04FF6FF722969CB6A934264
:10427C0003D1B4F5803F08BF1C46EEB94C63284609
:10428C00BDE8F840FFF7DFBE832AECD1DB6A03FB05
:10429C0004436424B3FBF4F4E5E72846FFF774FF0A
:1042AC000A4BB0FBF3F06043B0FBF7F4DBE72846B6
:1042BC00FFF76AFF6743F7E7042E01D18C63DEE753
:1042CC00082E0CBFCC630C64D9E700BF40420F0032
:1042DC00034B186810B10430FEF77CBE704700BF6A
:1042EC0098330020FFF7F4BF034B586810B104302B
:1042FC00FEF770BE704700BF98330020034B9868E0
:10430C0010B10430FEF766BE704700BF9833002032
:10431C00034BD86810B10430FEF75CBE704700BF89
:10432C00983300200022C0E90022C0E90222704725
:10433C00F8B504460E4600F1600500F1B0072846BA
:10434C001035FFF7EFFFBD42F9D10023204631466F
:10435C002361FFF7D1FE2046F8BD826810B50AB97B
:10436C0004F078FFC368BDE81040184708B500B9E1
:10437C00FEE701F035FA0068836E13B16030FFF789
:10438C00ECFF08BDFFF7F2BF10B500B9FEE7037FE5
:10439C00013B072B10D8DFE803F004140F100F0FAC
:1043AC000F12012401F01CFA0068063400EB041013
:1043BC0083680BB1FFF7D1FF10BD0324F2E704248F
:1043CC00F0E70224EEE7FFF7DFBFFFF7DDBF84B0B5
:1043DC0001A880E80E0004B00020704703464FF49B
:1043EC003F420020A3F84400A3F840207047B0F8E7
:1043FC00403023F47C535B045B0CA0F8403000206D
:10440C0070470020704784B010B5044603A880E8BC
:10441C000E0000200123A4F84030A4F84000A4F8BA
:10442C004400A4F85000BDE8104004B070470000F0
:10443C00F0B50A78CD7830F82240034624F4EC44E9
:10444C0024F070042404240C032D4ED8DFE805F06E
:10445C00024A4846284644F4007448F280073C431C
:10446C0023F8224033F82240904EA4B23440144337
:10447C00274323F822700C7B03EB0217002C40F02F
:10448C008180CC8891F801C064086400BCF1000FF5
:10449C002DD0B3F8501089B23944A1F8004433F848
:1044AC0022104F0609D533F8221089B2314041F45D
:1044BC00004141F0C00123F8221033F822107C4C4B
:1044CC0089B2012D01EA040101D081F0200141F4EF
:1044DC00004141F0800123F82210AEE044F4C064A6
:1044EC000020BAE744F48064FAE70120B5E7B3F89A
:1044FC005050ADB23D44A5F80844B3F850400D6996
:10450C00A4B23C446DBBB4F80C1421F4F84109047A
:10451C00090CA4F80C14B4F80C146FEA41416FEABE
:10452C00514189B2A4F80C1433F8221049040DD56A
:10453C0033F8221021F4E04121F070010904090C38
:10454C0041F4404141F0800123F8221033F822104D
:10455C0021F4804121F070010904090C81F44051CF
:10456C00B5E73E2D05D86908EE0748BF0131890231
:10457C00D7E76E094F49ED0608BF06F1FF3641EA51
:10458C008621CEE733F82240A4B2344044F40144EF
:10459C0044F0800423F82240B3F85040B1F808C02E
:1045AC00A4B24FEA5C0C3C444FEA4C0CA4F800C497
:1045BC00B3F85040A4B23C444F897F087F00A4F864
:1045CC0008744978D1BB33F822104F0409D533F85D
:1045DC00221089B2314041F4404141F0800123F86E
:1045EC00221033F822104D060DD533F8221021F489
:1045FC00E04121F070010904090C41F4004141F043
:10460C00C00123F8221048F2800433F8221021F460
:10461C00804121F070010904090C81F440512143BF
:10462C0023F8221033F8221021F4E04121F040014C
:10463C000904090C0C4323F82240F0BD33F8221076
:10464C004C0409D533F8221089B2314041F4404171
:10465C0041F0800123F8221033F8221049060DD5C1
:10466C0033F8221021F4E04121F070010904090C07
:10467C0041F4004141F0C00123F8221033F822101C
:10468C000B4C89B22140012D18BF81F0200141F45F
:10469C00004141F0800123F8221033F8221021F45C
:1046AC00804121F070010904090C10E78F8FFFFF86
:1046BC00BF8FFFFF0080FFFF4A780B78097BD9BBC7
:1046CC000AB330F8232051060DD530F8232022F4FC
:1046DC00E04222F070021204120C42F4004242F04A
:1046EC00C00220F8232030F8232022F4E04222F0EC
:1046FC0040021204120C42F4004242F0800220F8F4
:10470C0023200020704730F8232052040DD530F8B8
:10471C00232022F4E04222F070021204120C42F424
:10472C00404242F0800220F8232030F8232022F46B
:10473C00804222F07002DCE7002A4AD130F82320B4
:10474C0051040DD530F8232022F4E04222F07002FF
:10475C001204120C42F4404242F0800220F8232052
:10476C0030F8232052060DD530F8232022F4E042F5
:10477C0022F070021204120C42F4004242F0C00209
:10478C0020F8232048F2800130F8232022F4E04264
:10479C0022F070021204120C42F4004242F0C002E9
:1047AC0020F8232030F8232022F4804222F07002DB
:1047BC001204120C0A4320F8232030F8232022F490
:1047CC00E04222F040021204120C114320F8231094
:1047DC0097E730F8232051040DD530F8232022F42C
:1047EC00E04222F070021204120C42F4404242F0F9
:1047FC00800220F8232030F8232052060DD530F803
:10480C00232022F4E04222F070021204120C42F433
:10481C00004242F0C00220F8232048F2800130F818
:10482C00232022F4E04222F070021204120C42F413
:10483C00404242F0800220F8232030F8232022F45A
:10484C00E04222F040021204120C0A4320F823200A
:10485C0030F8232022F4804222F07002B3E74B7828
:10486C000A788BB130F8223023F4E04323F0400374
:10487C001B041B0C83F0100343F4004343F0800330
:10488C0020F822300020704730F8223023F4804387
:10489C0023F070031B041B0C83F48053ECE70B7B9D
:1048AC003BBB4B780A7833B330F822305B060DD51E
:1048BC0030F8223023F4E04323F070031B041B0C6C
:1048CC0043F4004343F0C00320F82230CB78012B93
:1048DC000FD030F8223023F4E04323F040031B04C4
:1048EC001B0C83F0200343F4004343F0800320F8B7
:1048FC0022300020704730F822305B040DD530F8A0
:10490C00223023F4E04323F070031B041B0C43F40C
:10491C00404343F0800320F8223030F8223023F457
:10492C00804323F070031B041B0C83F44053DAE721
:10493C0011B98023A0F84C3000207047002070473C
:10494C0000207047B0F8440080B2704700207047D8
:10495C0000EB4200013300F580605B0800EB830341
:10496C00984200D1704731F8022B20F8042BF7E75E
:10497C002DE9F0474B780446012B0D460A7B40F09D
:10498C008581D1F810808F694969474528BF474612
:10499C000ABBBFB2EA883B46FFF7DAFFB4F8500017
:1049AC00297880B204F20442090102448F522A7819
:1049BC0034F8223023F4E04323F040031B041B0C97
:1049CC0083F03003002043F4004343F0800324F8C9
:1049DC002230BDE8F087EB7895F800E0022B2E6AC8
:1049EC004FEA0E1C40F0B880B04580F09A8030F849
:1049FC002E30F61B23F4E04323F070031B041B0C36
:104A0C0043F4014343F0800320F82E3030F82E900D
:104A1C00B0F850E019F040092E62BBB201EB070A66
:104A2C001FFA8EFE3FD000F20C42724422F80C307A
:104A3C006A89FFF78DFFB04536BFF31B00233E4656
:104A4C006A782B62C5F814A0B3B2002A40F0D28069
:104A5C00B4F85000297880B204F2044209010244EF
:104A6C0086B9885A20F4F8400004000C8852885A01
:104A7C006FEA40406FEA504080B288522A89514612
:104A8C00204666E03E2E05D87008F60748BF013078
:104A9C008002F1E77709F0069B4808BF07F1FF3762
:104AAC0040EA8720E8E700F20442724422F80C3016
:104ABC002A89FFF74DFFB04536BFF31B4B463E46E8
:104ACC006A782B62C5F814A0B3B2002A40F0D180EA
:104ADC00B4F85000297880B204F20C420901024467
:104AEC0076B9885A20F4F8400004000C8852885A91
:104AFC006FEA40406FEA504080B288526A89BEE744
:104B0C003E2E05D87008F60748BF01308002F3E747
:104B1C007709F0067C4808BF07F1FF3740EA872089
:104B2C00EAE730F82E2022F4E24222F0700212045E
:104B3C00120C42F4004242F0800220F82E20B0F811
:104B4C00503000F204429BB21A44B3B222F80C303B
:104B5C002A89FFF7FDFE2AE730F82E20F61B22F4F7
:104B6C00E04222F070021204120C42F4014242F0B4
:104B7C00800220F82E2030F82E90B0F850E019F07A
:104B8C0040092E62BBB201EB070A1FFA8EFE3ED023
:104B9C0000F20C42724422F80C306A89FFF7D8FEFE
:104BAC00B04536BFF31B00233E46C5F814A02B625C
:104BBC00002E3FF4FCAE6A78B3B2DAB9B4F85020E8
:104BCC00287892B204F204413E2E4FEA00101144B0
:104BDC0007D87208F60748BF0132920292B24252CD
:104BEC004CE77709F206484A08BF07F1FF3742EA5B
:104BFC008722F3E7012A7FF441AFB4F850002978FB
:104C0C0080B204F20442090102448B5236E700F2EE
:104C1C000442724422F80C302A89FFF799FEB04501
:104C2C0036BFF31B4B463E46C5F814A02B62002E34
:104C3C003FF4BDAE6A78B3B2DAB9B4F85020287834
:104C4C0092B204F20C413E2E4FEA0010114407D8E8
:104C5C007208F60748BF0132920292B242524DE7F7
:104C6C007709F206284A08BF07F1FF3742EA872284
:104C7C00F3E7012A7FF442AFB4F85000297880B2F0
:104C8C0004F20C42090102448B5237E7002A3DD151
:104C9C008B690969B0F850008B4284BF5A1A0B46D5
:104CAC002978AA6180B204F20C42090102446BB962
:104CBC008B5A23F4F8431B041B0C8B528B5A6FEA50
:104CCC0043436FEA53439BB28B5208E03E2B12D8FE
:104CDC005808DE0748BF0130800280B288522A781B
:104CEC0034F8223023F4804323F070031B041B0C94
:104CFC0083F4405366E65809DB06034B08BF00F10A
:104D0C00FF3043EA8023DEE70080FFFFCA78022AE7
:104D1C007FD153BBB0F850200B78096992B200F2E6
:104D2C0004401B01104404F20C4600293AD1C25A2B
:104D3C0022F4F8421204120CC252C25A6FEA4242D6
:104D4C006FEA524292B2C252B4F8502092B232443C
:104D5C00D15A21F4F8410904090CD152D15A6FEA05
:104D6C0041416FEA514189B2D152EB69002BB6D067
:104D7C0044F240032A7834F8221003EA01008B43F2
:104D8C0001D00028ABD134F8223023F4E04323F0D7
:104D9C0070031B041B0C43F4004343F0C00324F8C2
:104DAC0022309CE73E2913D84A0811F001011ABFA2
:104DBC00571CBF029702BFB2C752B4F8500080B262
:104DCC003044034401B10132920292B21A80CCE712
:104DDC004F0911F01F01474A0FD042EA872292B2C5
:104DEC00C252B4F8502092B2324413443A4601B93C
:104DFC007A1E404941EA8222E7E707F1FF3C42EA8A
:104E0C008C2292B2C252B4F8502092B2164433445F
:104E1C00ECE7012A6CD189692A69914294BF002080
:104E2C00881AA86188BF1146002B7FF458AFB4F8DC
:104E3C0050202B7892B204F204461B01164404F263
:104E4C000C40F1B9F25A22F4F8421204120CF2524C
:104E5C00F25A6FEA42426FEA524292B2F252B4F8FC
:104E6C00502092B20244D15A21F4F8410904090CA1
:104E7C00D152D15A6FEA41416FEA514189B2D152B4
:104E8C002DE73E2913D84A0811F001011ABF571C0F
:104E9C00BF029702BFB2F752B4F85060B6B23044BA
:104EAC00034401B10132920292B21A8017E74F0902
:104EBC0011F01F010F4A0FD042EA872292B2F25230
:104ECC00B4F8502092B2024413443A4601B97A1E07
:104EDC00084941EA8222E7E707F1FF3C42EA8C22CB
:104EEC0092B2F252B4F8502092B210440344ECE760
:104EFC0001206EE50080FFFF00EB4200F0B500F5ED
:104F0C0080605D080C4607462E46023436B9DB0736
:104F1C0044BF30F8253001F81530F0BD37F8042BBC
:104F2C00013E92B204F8022C120A04F8012CECE7B0
:104F3C0002F008BF02F00EBF86B0042841D8DFE8AB
:104F4C0000F003101C2834001F4B20489A6942F0D3
:104F5C0004029A619B6903F004030193019B06B060
:104F6C007047194B1A489A6942F008029A619B697A
:104F7C0003F008030293029BF1E7134B15489A695F
:104F8C0042F010029A619B6903F010030393039B98
:104F9C00E5E70D4B10489A6942F020029A619B6933
:104FAC0003F020030493049BD9E7074B0B489A6941
:104FBC0042F040029A619B6903F040030593059B04
:104FCC00CDE70020CBE700BF0010024000080140F5
:104FDC00000C014000100140001401400018014079
:104FEC002DE9F0478946244998461746064600F0B5
:104FFC009FFBFFF745F8DFF884A004465AF82030F1
:10500C0073B9B020FFF794FF1B490546304600F0FA
:10501C008FFB01462846FFF78BF95AF824301D60A8
:10502C005AF82430144930461C6800F0A3FBC0F336
:10503C00C43529462046FEF7F5FF0528824605D0E3
:10504C003346052229462046FEF73AFF02224946FE
:10505C002046FFF7C5F843463A4629462046FFF757
:10506C00E5F8BAF1050F04D02046BDE8F047FEF78D
:10507C0005BFBDE8F08700BF1C95000898330020E1
:10508C00F8B51449074600F053FBFEF7F9FF124E32
:10509C00044656F8203073B9B020FFF749FF0D498C
:1050AC000546384600F044FB01462846FFF740F918
:1050BC0056F824301D6056F824301C6844B1204644
:1050CC00FEF7FAFF2046BDE8F840B021FFF732BFEB
:1050DC00F8BD00BF1C95000898330020FCF7DABA25
:1050EC00704708B5FCF7CAFAFCF771FBFFF7F8FF3D
:1050FC0008BD70470F4B84B0DA6942F08052DA6118
:10510C00DA6902F080520192019A9A6942F0010226
:10511C009A619A6902F001020292029A5A6942F06B
:10512C0040025A615B6903F040030393039B04B094
:10513C00704700BF001002400C4BD3F8FC20D2018A
:10514C005EBFD3F8FC2042F08072C3F8FC20002232
:10515C00074B5A601A6842F001021A6000BF00BF88
:10516C0000BF5868B0FA80F04009704700ED00E0CD
:10517C00001000E008B5FFF7BDFFFFF7DDFFFCF7FF
:10518C006BFAFFF7B6FF00F0C1FE0348FCF724FBF7
:10519C00BDE8084002F0FAB8680000200023C0E91E
:1051AC000033C0E9023370470023012803F10102E8
:1051BC000AD11422DBB25343054A181D10448168EE
:1051CC0029B11A441369184713464008EDE7704794
:1051DC00A83300200120FCF799BC0220FCF796BCF8
:1051EC000420FCF793BC0820FCF790BC1020FCF7C3
:1051FC008DBC38B505242025A8B2FCF787FC013CF2
:10520C004FEA4505F8D138BD38B506244FF4806512
:10521C00A8B2FCF77BFC013C4FEA4505F8D138BD40
:10522C00344A08B51046062300F8043BFFF7B6FFD6
:10523C00072302F118001375FFF7B0FF082302F1E2
:10524C002C0082F82830FFF7A9FF092302F1400057
:10525C0082F83C30FFF7A2FF0A23172102F1540019
:10526C0082F85030FFF79AFF02F1680082F8641060
:10527C00FFF794FF02F17C0082F87810FFF78EFFA5
:10528C0002F1900082F88C10FFF788FF02F1A40065
:10529C0082F8A010FFF782FF82F8B410282102F1E7
:1052AC00B800FFF77BFF02F1CC0082F8C810FFF7C3
:1052BC0075FF02F1E00082F8DC10FFF76FFF02F1DE
:1052CC00F40082F8F010FFF769FF02F5847082F8A1
:1052DC000411FFF763FF02F58E7082F81811FFF7C7
:1052EC005DFFBDE8084002F5987082F82C11FFF7BD
:1052FC0055BF00BFA833002038B5054CA4F5A075E8
:10530C00143C201DFEF707FDAC42F9D138BD00BF9F
:10531C00E83400207B4B82B09A69013842F00102DC
:10532C009A619B6903F001030193019B23282CD8FC
:10533C00DFE810F024002D0034003B004000470053
:10534C004C00530058005F0068006D0074007D0035
:10535C008200890092009B00A000A700B000B5005D
:10536C00BC002B002B002B00C100C8002B002B0015
:10537C002B002B00CD00D200D900E000624A53680C
:10538C0043F0E06343F00103536002B070475E4AA0
:10539C00536823F0010343F0E063F5E75A4A53687E
:1053AC0043F0E06343F00203EEE7574A536823F0FF
:1053BC000203F0E7544A536843F0E06343F00403FC
:1053CC00E2E7514A536823F00403E4E74E4A53687A
:1053DC0043F0E06343F00803D6E74B4A536823F0ED
:1053EC000803D8E7484A536843F0E06343F03003BE
:1053FC00CAE7454A536823F0300343F0E06343F0B7
:10540C001003C1E7404A536823F03003C3E73E4A18
:10541C00536843F0E06343F0C003B5E73A4A53687E
:10542C0023F0C00343F0E06343F04003ACE7364A9B
:10543C00536823F0C003AEE7334A536843F0E0638C
:10544C0043F44073A0E7304A536823F4407343F0AD
:10545C00E06343F4007397E72B4A536823F44073DB
:10546C0043F0E06343F480738EE7274A536823F4D8
:10547C00407390E7244A536843F0E06343F440637D
:10548C0082E7214A536823F4406343F0E06343F41A
:10549C00006379E71C4A536823F440637BE71A4A9C
:1054AC00536843F0E06343F480536DE7164A536846
:1054BC0023F480536FE7144A536843F0E06343F4DA
:1054CC00004361E7104A536823F4004363E70E4A34
:1054DC00536823F0E06357E70B4A536823F0E0630B
:1054EC0043F0807350E7084A536823F0E06343F0BD
:1054FC00007349E7044A536823F0E06343F0806388
:10550C0042E700BF001002400000014091FAA1F3F5
:10551C00B3FA83F370B50D0E0F2691FAA1F1B1FA1F
:10552C0081F144599B0006FA03F3890024EA030431
:10553C008A402243425170BD91FAA1F3B3FA83F32E
:10554C0070B50D0E042691FAA1F1B1FA81F144590E
:10555C009B0006FA03F3890024EA03048A402243E1
:10556C00425170BD431C04D00C3151F80C3C5A1CF8
:10557C0001D100207047834201F10C01F5D10120CB
:10558C0070470000431C2DE9F34106460F4600D13D
:10559C00FEE7584B00F00F02C0F3031001F00708B0
:1055AC0053F82250FFF7C8FCB8F1010F044615D18F
:1055BC0095FAA5F3B3FA83F30321280E22589B0026
:1055CC0001FA03F322EA030295FAA5F3B3FA83F383
:1055DC009B0099401143215001223BE0C7F3062068
:1055EC00B8F1030F0AD801A353F828F00B560008A2
:1055FC00E55500085756000879560008FEE7FFF7F6
:10560C0089FE082229462046FFF780FF95FAA5F26D
:10561C002B0EB2FA82F2E1580F239200934095FAC6
:10562C00A5F2B2FA82F2C7F301170B409200012FD8
:10563C0023FA02F31CD0022F45D0082B2BD10422C5
:10564C0029462046FFF762FF25E07F2801D0FFF7AF
:10565C0061FE092229462046FFF758FF17F0080281
:10566C0018BF04222946FFF767FFCFE70022C9E7DE
:10567C00042B04D1082229462046FFF747FF0123BB
:10568C002A0A92FAA2F2B2FA82F2E168934021EA73
:10569C0015210B43E360184B9A6942F001029A61A1
:1056AC009B6903F001030193019BA6F10D03012BF0
:1056BC0014D8124A536823F0E06343F080635360BC
:1056CC0002B0BDE8F081042B04D108222946204603
:1056DC00FFF71CFFE36823EA1523DBE70F2E02D04C
:1056EC00133E012EECD8054A536823F0E06343F0D7
:1056FC000073E4E7B0930008001002400000014082
:10570C00431C06D17047834202D18968FFF73ABF28
:10571C000C310B685A1CF6D1FEE70B685A1C01D1F0
:10572C0000207047834201D1486870470C31F4E780
:10573C00431C01D0FFF7F1BF002070474B6813B931
:10574C004FF0FF307047834201D1086870470C312D
:10575C00F4E708B1FFF7F2BF4FF0FF307047034694
:10576C000868421C00D17047984201D18868704784
:10577C000C31F5E7431C01D0FFF7F1BF704703462E
:10578C008B42084604D01BB100290CBF18460020E0
:10579C00704700000F4B1A6842F001021A605968FA
:1057AC000D4A0A405A601A6822F0847222F4803240
:1057BC001A601A6822F480221A605A6822F4FE02D7
:1057CC005A604FF41F029A604FF00062034B9A60CC
:1057DC00704700BF001002400000FFF800ED00E031
:1057EC000438704703681D4A84B093420BD11C4B9C
:1057FC009A6942F400629A619B6903F40063009316
:10580C00009B04B07047B3F1804F0BD103F5043308
:10581C00DA6942F00102DA61DB6903F001030193FA
:10582C00019BEEE70F4A93420AD10D4BDA6942F025
:10583C000202DA61DB6903F002030293029BE0E7E8
:10584C00094A9342DDD1064BDA6942F00402DA616F
:10585C00DB6903F004030393039BD2E7002C0140A4
:10586C000010024000040040000800400368124A87
:10587C00934206D102F56442936923F40063936169
:10588C007047B3F1804F05D10C4AD36923F0010363
:10589C00D36170470A4A934205D102F50332D369AA
:1058AC0023F00203F4E7074A9342F2D102F50232E5
:1058BC00D36923F00403EBE7002C014000100240F5
:1058CC000004004000080040431C10D00C4B9842D0
:1058DC0010D007D8B0F1804F0ED0A3F5806398425A
:1058EC000CD0FEE7074B9842FBD1192070476FF0A4
:1058FC000D0070471E2070471C2070471D207047FC
:10590C0000080040002C0140431C10D00C4B984266
:10591C0010D007D8B0F1804F0ED0A3F58063984219
:10592C000CD0FEE7074B9842FBD11B2070476FF061
:10593C000D0070471E2070471C2070471D207047BB
:10594C0000080040002C014038B50446FFF74AFF20
:10595C000068FFF7B9FFD4E91212FBF7C5FE206807
:10596C00FFF7B2FFFBF7F0FE22681046FFF7CCFF03
:10597C0005461046FFF7A8FF85420BD0D4E912125A
:10598C002846FBF7B1FE2068FFF7BEFFBDE83840A4
:10599C00FBF7DABE38BD0000431C0CD0094B984213
:1059AC000BD007D820F48063B3F1804F07D0064B9F
:1059BC00984204D0FEE70020704702207047012077
:1059CC00704700BF002C01400008004008B5064994
:1059DC00FFF7D0FEC0F3C430431E032B00D9FEE703
:1059EC008000043808BD00BF1C9500082DE9F04F5D
:1059FC0087B09846109B04468A46006D62499146D2
:105A0C000193FFF795FE61498346606DFFF790FEA9
:105A1C005F490646A06DFFF78BFE5E490546E06DBB
:105A2C00FFF786FE0746BBF1000F00F0A980626D00
:105A3C00013202D0002E00F0A380A26D013202D000
:105A4C00002D00F09D80E26D013202D0002F00F09D
:105A5C00978031465846FFF792FE29462060FFF7A3
:105A6C008EFE39462060FFF78AFE2060002800F089
:105A7C008780494B98424CD103F55843DA6842F47D
:105A8C008042DA60DA6822F48042DA609A6942F481
:105A9C0080429A619B6903F480430393039B252303
:105AAC00A4F860303849206DFFF72AFE1EB1374943
:105ABC00606DFFF725FE2DB13549A06DFFF720FE77
:105ACC004FF480752FB13349E06D45F40075FFF745
